{
  "contractName": "RentalPlatform",
  "abi": [
    {
      "inputs": [],
      "name": "ReentrancyGuardReentrantCall",
      "type": "error"
    },
    {
      "anonymous": false,
      "inputs": [
        {
          "indexed": true,
          "internalType": "uint256",
          "name": "itemId",
          "type": "uint256"
        },
        {
          "indexed": true,
          "internalType": "address",
          "name": "owner",
          "type": "address"
        }
      ],
      "name": "ItemDelisted",
      "type": "event"
    },
    {
      "anonymous": false,
      "inputs": [
        {
          "indexed": true,
          "internalType": "uint256",
          "name": "itemId",
          "type": "uint256"
        },
        {
          "indexed": true,
          "internalType": "address",
          "name": "owner",
          "type": "address"
        },
        {
          "indexed": false,
          "internalType": "string",
          "name": "title",
          "type": "string"
        },
        {
          "indexed": false,
          "internalType": "uint256",
          "name": "dailyRentalPrice",
          "type": "uint256"
        },
        {
          "indexed": false,
          "internalType": "uint256",
          "name": "deposit",
          "type": "uint256"
        },
        {
          "indexed": false,
          "internalType": "string",
          "name": "metadataCID",
          "type": "string"
        }
      ],
      "name": "ItemListed",
      "type": "event"
    },
    {
      "anonymous": false,
      "inputs": [
        {
          "indexed": true,
          "internalType": "uint256",
          "name": "itemId",
          "type": "uint256"
        },
        {
          "indexed": true,
          "internalType": "address",
          "name": "renter",
          "type": "address"
        },
        {
          "indexed": false,
          "internalType": "uint256",
          "name": "rentedUntil",
          "type": "uint256"
        },
        {
          "indexed": false,
          "internalType": "uint256",
          "name": "depositPaid",
          "type": "uint256"
        }
      ],
      "name": "ItemRented",
      "type": "event"
    },
    {
      "anonymous": false,
      "inputs": [
        {
          "indexed": true,
          "internalType": "uint256",
          "name": "itemId",
          "type": "uint256"
        },
        {
          "indexed": true,
          "internalType": "address",
          "name": "renter",
          "type": "address"
        },
        {
          "indexed": false,
          "internalType": "uint256",
          "name": "rentalFeePaid",
          "type": "uint256"
        },
        {
          "indexed": false,
          "internalType": "uint256",
          "name": "depositRefunded",
          "type": "uint256"
        },
        {
          "indexed": false,
          "internalType": "uint256",
          "name": "lateFeePaid",
          "type": "uint256"
        }
      ],
      "name": "ItemReturned",
      "type": "event"
    },
    {
      "stateMutability": "payable",
      "type": "fallback",
      "payable": true
    },
    {
      "inputs": [],
      "name": "LATE_FEE_PERCENTAGE",
      "outputs": [
        {
          "internalType": "uint256",
          "name": "",
          "type": "uint256"
        }
      ],
      "stateMutability": "view",
      "type": "function",
      "constant": true
    },
    {
      "inputs": [
        {
          "internalType": "uint256",
          "name": "",
          "type": "uint256"
        }
      ],
      "name": "items",
      "outputs": [
        {
          "internalType": "uint256",
          "name": "id",
          "type": "uint256"
        },
        {
          "internalType": "string",
          "name": "title",
          "type": "string"
        },
        {
          "internalType": "address payable",
          "name": "owner",
          "type": "address"
        },
        {
          "internalType": "uint256",
          "name": "dailyRentalPrice",
          "type": "uint256"
        },
        {
          "internalType": "uint256",
          "name": "deposit",
          "type": "uint256"
        },
        {
          "internalType": "string",
          "name": "metadataCID",
          "type": "string"
        },
        {
          "internalType": "address payable",
          "name": "renter",
          "type": "address"
        },
        {
          "internalType": "uint256",
          "name": "rentalStartTime",
          "type": "uint256"
        },
        {
          "internalType": "uint256",
          "name": "rentedUntil",
          "type": "uint256"
        },
        {
          "internalType": "bool",
          "name": "isListed",
          "type": "bool"
        },
        {
          "internalType": "bool",
          "name": "exists",
          "type": "bool"
        }
      ],
      "stateMutability": "view",
      "type": "function",
      "constant": true
    },
    {
      "inputs": [],
      "name": "totalItems",
      "outputs": [
        {
          "internalType": "uint256",
          "name": "",
          "type": "uint256"
        }
      ],
      "stateMutability": "view",
      "type": "function",
      "constant": true
    },
    {
      "stateMutability": "payable",
      "type": "receive",
      "payable": true
    },
    {
      "inputs": [
        {
          "internalType": "string",
          "name": "_title",
          "type": "string"
        },
        {
          "internalType": "uint256",
          "name": "_dailyRentalPrice",
          "type": "uint256"
        },
        {
          "internalType": "uint256",
          "name": "_deposit",
          "type": "uint256"
        },
        {
          "internalType": "string",
          "name": "_metadataCID",
          "type": "string"
        }
      ],
      "name": "listItem",
      "outputs": [],
      "stateMutability": "nonpayable",
      "type": "function"
    },
    {
      "inputs": [
        {
          "internalType": "uint256",
          "name": "_itemId",
          "type": "uint256"
        }
      ],
      "name": "rentItem",
      "outputs": [],
      "stateMutability": "payable",
      "type": "function",
      "payable": true
    },
    {
      "inputs": [
        {
          "internalType": "uint256",
          "name": "_itemId",
          "type": "uint256"
        }
      ],
      "name": "returnItem",
      "outputs": [],
      "stateMutability": "nonpayable",
      "type": "function"
    },
    {
      "inputs": [
        {
          "internalType": "uint256",
          "name": "_itemId",
          "type": "uint256"
        }
      ],
      "name": "delistItem",
      "outputs": [],
      "stateMutability": "nonpayable",
      "type": "function"
    },
    {
      "inputs": [
        {
          "internalType": "uint256",
          "name": "_itemId",
          "type": "uint256"
        }
      ],
      "name": "getItem",
      "outputs": [
        {
          "components": [
            {
              "internalType": "uint256",
              "name": "id",
              "type": "uint256"
            },
            {
              "internalType": "string",
              "name": "title",
              "type": "string"
            },
            {
              "internalType": "address payable",
              "name": "owner",
              "type": "address"
            },
            {
              "internalType": "uint256",
              "name": "dailyRentalPrice",
              "type": "uint256"
            },
            {
              "internalType": "uint256",
              "name": "deposit",
              "type": "uint256"
            },
            {
              "internalType": "string",
              "name": "metadataCID",
              "type": "string"
            },
            {
              "internalType": "address payable",
              "name": "renter",
              "type": "address"
            },
            {
              "internalType": "uint256",
              "name": "rentalStartTime",
              "type": "uint256"
            },
            {
              "internalType": "uint256",
              "name": "rentedUntil",
              "type": "uint256"
            },
            {
              "internalType": "bool",
              "name": "isListed",
              "type": "bool"
            },
            {
              "internalType": "bool",
              "name": "exists",
              "type": "bool"
            }
          ],
          "internalType": "struct RentalPlatform.Item",
          "name": "",
          "type": "tuple"
        }
      ],
      "stateMutability": "view",
      "type": "function",
      "constant": true
    },
    {
      "inputs": [
        {
          "internalType": "uint256",
          "name": "_offset",
          "type": "uint256"
        },
        {
          "internalType": "uint256",
          "name": "_limit",
          "type": "uint256"
        }
      ],
      "name": "getListedItemIds",
      "outputs": [
        {
          "internalType": "uint256[]",
          "name": "",
          "type": "uint256[]"
        }
      ],
      "stateMutability": "view",
      "type": "function",
      "constant": true
    }
  ],
  "bytecode": "0x608060405234801561001057600080fd5b506001600055611938806100256000396000f3fe6080604052600436106100845760003560e01c806342d7104b1161005657806342d7104b1461012357806355e82e5f14610143578063bce9ceed14610170578063bfb231d214610185578063d78d3852146101bc57005b8063100616311461008d578063223ed1dd146100ad5780632799276d146100cd5780633129e773146100f657005b3661008b57005b005b34801561009957600080fd5b5061008b6100a8366004611377565b6101cf565b3480156100b957600080fd5b5061008b6100c8366004611377565b6103dd565b3480156100d957600080fd5b506100e360025481565b6040519081526020015b60405180910390f35b34801561010257600080fd5b50610116610111366004611377565b61086f565b6040516100ed91906113d6565b34801561012f57600080fd5b5061008b61013e36600461154d565b610ad6565b34801561014f57600080fd5b5061016361015e3660046115c4565b610ded565b6040516100ed91906115e6565b34801561017c57600080fd5b506100e3600a81565b34801561019157600080fd5b506101a56101a0366004611377565b610ffc565b6040516100ed9b9a9998979695949392919061162a565b61008b6101ca366004611377565b61117e565b6000818152600160205260409020600901548190610100900460ff166102105760405162461bcd60e51b8152600401610207906116ac565b60405180910390fd5b6000818152600160205260409020600201546001600160a01b0316331461028d5760405162461bcd60e51b815260206004820152602b60248201527f4f6e6c7920746865206974656d206f776e65722063616e2063616c6c2074686960448201526a3990333ab731ba34b7b71760a91b6064820152608401610207565b6000828152600160205260409020600901548290610100900460ff166102c55760405162461bcd60e51b8152600401610207906116ac565b60008181526001602052604090206009015460ff166103265760405162461bcd60e51b815260206004820152601c60248201527f4974656d206973206e6f74206c697374656420666f722072656e742e000000006044820152606401610207565b600083815260016020526040902060068101546001600160a01b03161561039e5760405162461bcd60e51b815260206004820152602660248201527f43616e6e6f742064656c69737420612063757272656e746c792072656e7465646044820152651034ba32b69760d11b6064820152608401610207565b60098101805460ff19169055604051339085907fcd69f8512d5dbb6c8101e48b86eee5edf783a51bc5e597bc5c832971e40fc91390600090a350505050565b6000818152600160205260409020600901548190610100900460ff166104155760405162461bcd60e51b8152600401610207906116ac565b6000818152600160205260409020600601546001600160a01b031633146104965760405162461bcd60e51b815260206004820152602f60248201527f4f6e6c79207468652063757272656e742072656e7465722063616e2063616c6c60448201526e103a3434b990333ab731ba34b7b71760891b6064820152608401610207565b6000828152600160205260409020600901548290610100900460ff166104ce5760405162461bcd60e51b8152600401610207906116ac565b60008181526001602052604090206009015460ff1615801561050957506000818152600160205260409020600601546001600160a01b031615155b6105555760405162461bcd60e51b815260206004820152601d60248201527f4974656d206973206e6f742063757272656e746c792072656e7465642e0000006044820152606401610207565b61055d61134d565b6000838152600160205260408120600781015490919061057d90426116f0565b9050600062015180610592836201517f611703565b61059c9190611716565b9050806000036105aa575060015b60008360030154826105bc9190611738565b9050600080856004015490506000866008015442111561063d5760008760080154426105e891906116f0565b90506000620151806105fd836201517f611703565b6106079190611716565b9050801561063a57606481600a8b600401546106239190611738565b61062d9190611738565b6106379190611716565b94505b50505b60006106498486611703565b905082811061065c57600092915061066c565b90508061066981846116f0565b92505b6006880180546001600160a01b03198116909155600060078a0181905560088a015560098901805460ff1916600117905560408051878152602081018690529081018690526001600160a01b039091169081908d907f1d472ba23316884ead92973918da4c4109d089ff5265b78630f0592806992e1d9060600160405180910390a3821561079b5760028901546040516000916001600160a01b03169085908381818185875af1925050503d8060008114610743576040519150601f19603f3d011682016040523d82523d6000602084013e610748565b606091505b50509050806107995760405162461bcd60e51b815260206004820181905260248201527f4661696c656420746f2073656e64207061796d656e7420746f206f776e65722e6044820152606401610207565b505b8315610857576000816001600160a01b03168560405160006040518083038185875af1925050503d80600081146107ee576040519150601f19603f3d011682016040523d82523d6000602084013e6107f3565b606091505b50509050806108555760405162461bcd60e51b815260206004820152602860248201527f4661696c656420746f2073656e64206465706f73697420726566756e6420746f604482015267103932b73a32b91760c11b6064820152608401610207565b505b50505050505050505061086a6001600055565b505050565b6108e2604051806101600160405280600081526020016060815260200160006001600160a01b0316815260200160008152602001600081526020016060815260200160006001600160a01b0316815260200160008152602001600081526020016000151581526020016000151581525090565b600082815260016020526040902060090154610100900460ff166109185760405162461bcd60e51b8152600401610207906116ac565b600082815260016020818152604092839020835161016081019094528054845291820180549184019161094a9061174f565b80601f01602080910402602001604051908101604052809291908181526020018280546109769061174f565b80156109c35780601f10610998576101008083540402835291602001916109c3565b820191906000526020600020905b8154815290600101906020018083116109a657829003601f168201915b505050918352505060028201546001600160a01b031660208201526003820154604082015260048201546060820152600582018054608090920191610a079061174f565b80601f0160208091040260200160405190810160405280929190818152602001828054610a339061174f565b8015610a805780601f10610a5557610100808354040283529160200191610a80565b820191906000526020600020905b815481529060010190602001808311610a6357829003601f168201915b505050918352505060068201546001600160a01b03166020820152600782015460408201526008820154606082015260099091015460ff8082161515608084015261010090910416151560a09091015292915050565b6000845111610b205760405162461bcd60e51b81526020600482015260166024820152752a34ba36329031b0b73737ba1031329032b6b83a3c9760511b6044820152606401610207565b60008311610b865760405162461bcd60e51b815260206004820152602d60248201527f4461696c792072656e74616c207072696365206d75737420626520677265617460448201526c32b9103a3430b7103d32b9379760991b6064820152608401610207565b60008211610be15760405162461bcd60e51b815260206004820152602260248201527f4465706f736974206d7573742062652067726561746572207468616e207a6572604482015261379760f11b6064820152608401610207565b6000815111610c325760405162461bcd60e51b815260206004820152601d60248201527f4d65746164617461204349442063616e6e6f7420626520656d7074792e0000006044820152606401610207565b60028054906000610c4283611789565b9091555050600254604080516101608101825282815260208082018881523383850152606083018890526080830187905260a08301869052600060c0840181905260e084018190526101008401819052600161012085018190526101408501819052868252928390529390932082518155925191929190820190610cc690826117f0565b5060408201516002820180546001600160a01b0319166001600160a01b03909216919091179055606082015160038201556080820151600482015560a08201516005820190610d1590826117f0565b5060c08201516006820180546001600160a01b0319166001600160a01b0390921691909117905560e08201516007820155610100808301516008830155610120830151600990920180546101409094015161ffff1990941692151561ff0019169290921792151502919091179055336000818152600360209081526040808320805460018101825590845291909220018390555182907fc3b5fc9346aa03599a0e658aaac0d936f2528202218fb16f3c71677a00d50d6290610dde9089908990899089906118b0565b60405180910390a35050505050565b6002546060906000839003610e315760005b604051908082528060200260200182016040528015610e28578160200160208202803683370190505b50915050610ff6565b808410610e3f576000610dff565b6000610e4b85836116f0565b90506000848210610e5c5784610e5e565b815b905060008167ffffffffffffffff811115610e7b57610e7b6114aa565b604051908082528060200260200182016040528015610ea4578160200160208202803683370190505b509050600080610eb5896001611703565b90505b858111610f515760008181526001602052604090206009015460ff168015610ef65750600081815260016020526040902060090154610100900460ff165b15610f385783821015610f335780838381518110610f1657610f166118ec565b602090810291909101015281610f2b81611789565b925050610f38565b610f51565b818814610f515780610f4981611789565b915050610eb8565b5060008167ffffffffffffffff811115610f6d57610f6d6114aa565b604051908082528060200260200182016040528015610f96578160200160208202803683370190505b50905060005b82811015610fed57838181518110610fb657610fb66118ec565b6020026020010151828281518110610fd057610fd06118ec565b602090810291909101015280610fe581611789565b915050610f9c565b50955050505050505b92915050565b60016020819052600091825260409091208054918101805461101d9061174f565b80601f01602080910402602001604051908101604052809291908181526020018280546110499061174f565b80156110965780601f1061106b57610100808354040283529160200191611096565b820191906000526020600020905b81548152906001019060200180831161107957829003601f168201915b50505060028401546003850154600486015460058701805496976001600160a01b0390941696929550909350906110cc9061174f565b80601f01602080910402602001604051908101604052809291908181526020018280546110f89061174f565b80156111455780601f1061111a57610100808354040283529160200191611145565b820191906000526020600020905b81548152906001019060200180831161112857829003601f168201915b5050505060068301546007840154600885015460099095015493946001600160a01b039092169390925060ff808216916101009004168b565b6000818152600160205260409020600901548190610100900460ff166111b65760405162461bcd60e51b8152600401610207906116ac565b60008181526001602052604090206009015460ff166112175760405162461bcd60e51b815260206004820152601c60248201527f4974656d206973206e6f74206c697374656420666f722072656e742e000000006044820152606401610207565b61121f61134d565b6000828152600160205260408120600381015460048201549192916112449190611703565b90508034146112955760405162461bcd60e51b815260206004820152601e60248201527f496e636f7272656374207061796d656e7420616d6f756e742073656e742e00006044820152606401610207565b6006820180546001600160a01b0319163317905560098201805460ff1916905542600783018190556112ca9062015180611703565b60088301908155336000818152600460208181526040808420805460018101825590855291909320018890559254928501549051919287927fbce23ccf0c7d16baddc8c8bebe403ff15beeaab79119b4e9ed60b25e10d9ad9a92611335928252602082015260400190565b60405180910390a350506113496001600055565b5050565b60026000540361137057604051633ee5aeb560e01b815260040160405180910390fd5b6002600055565b60006020828403121561138957600080fd5b5035919050565b6000815180845260005b818110156113b65760208185018101518683018201520161139a565b506000602082860101526020601f19601f83011685010191505092915050565b6020815281516020820152600060208301516101608060408501526113ff610180850183611390565b9150604085015161141b60608601826001600160a01b03169052565b5060608501516080850152608085015160a085015260a0850151601f198584030160c086015261144b8382611390565b92505060c085015161146860e08601826001600160a01b03169052565b5060e085015161010085810191909152850151610120808601919091528501516101406114988187018315159052565b90950151151593019290925250919050565b634e487b7160e01b600052604160045260246000fd5b600082601f8301126114d157600080fd5b813567ffffffffffffffff808211156114ec576114ec6114aa565b604051601f8301601f19908116603f01168101908282118183101715611514576115146114aa565b8160405283815286602085880101111561152d57600080fd5b836020870160208301376000602085830101528094505050505092915050565b6000806000806080858703121561156357600080fd5b843567ffffffffffffffff8082111561157b57600080fd5b611587888389016114c0565b9550602087013594506040870135935060608701359150808211156115ab57600080fd5b506115b8878288016114c0565b91505092959194509250565b600080604083850312156115d757600080fd5b50508035926020909101359150565b6020808252825182820181905260009190848201906040850190845b8181101561161e57835183529284019291840191600101611602565b50909695505050505050565b60006101608d83528060208401526116448184018e611390565b6001600160a01b038d81166040860152606085018d9052608085018c905284820360a0860152909150611677828b611390565b981660c0840152505060e081019490945261010084019290925215156101208301521515610140909101529695505050505050565b60208082526014908201527324ba32b6903237b2b9903737ba1032bc34b9ba1760611b604082015260600190565b634e487b7160e01b600052601160045260246000fd5b81810381811115610ff657610ff66116da565b80820180821115610ff657610ff66116da565b60008261173357634e487b7160e01b600052601260045260246000fd5b500490565b8082028115828204841417610ff657610ff66116da565b600181811c9082168061176357607f821691505b60208210810361178357634e487b7160e01b600052602260045260246000fd5b50919050565b60006001820161179b5761179b6116da565b5060010190565b601f82111561086a57600081815260208120601f850160051c810160208610156117c95750805b601f850160051c820191505b818110156117e8578281556001016117d5565b505050505050565b815167ffffffffffffffff81111561180a5761180a6114aa565b61181e81611818845461174f565b846117a2565b602080601f831160018114611853576000841561183b5750858301515b600019600386901b1c1916600185901b1785556117e8565b600085815260208120601f198616915b8281101561188257888601518255948401946001909101908401611863565b50858210156118a05787850151600019600388901b60f8161c191681555b5050505050600190811b01905550565b6080815260006118c36080830187611390565b85602084015284604084015282810360608401526118e18185611390565b979650505050505050565b634e487b7160e01b600052603260045260246000fdfea2646970667358221220f83f6079a47743fd40c181d4b9c10a1591c419cc3bca60cdcc2f71d0a2ac087664736f6c63430008140033",
  "immutableReferences": {},
  "source": "// SPDX-License-Identifier: MIT\r\npragma solidity ^0.8.20;\r\n\r\nimport \"@openzeppelin/contracts/utils/ReentrancyGuard.sol\";\r\n\r\n/**\r\n * @title RentalPlatform\r\n * @dev A smart contract for a decentralized item rental platform.\r\n * Stores item details and IPFS metadata links on-chain.\r\n * Handles rentals, returns, fees, and payments.\r\n */\r\ncontract RentalPlatform is ReentrancyGuard {\r\n\r\n    // --- Structs ---\r\n    struct Item {\r\n        uint256 id;\r\n        string title; // Basic title for potential on-chain filtering\r\n        address payable owner;\r\n        uint256 dailyRentalPrice; // Price per day in Wei\r\n        uint256 deposit;          // Deposit amount in Wei\r\n        string metadataCID;       // IPFS CID linking to off-chain metadata (image, description, etc.)\r\n        address payable renter;\r\n        uint256 rentalStartTime;  // Timestamp when the rental period began\r\n        uint256 rentedUntil;      // Timestamp until which the item is paid for (initially 1 day)\r\n        bool isListed;            // True if the item is available for rent\r\n        bool exists;              // To check if an item ID is valid\r\n    }\r\n\r\n    // --- State Variables ---\r\n    mapping(uint256 => Item) public items;\r\n    uint256 public totalItems; // Counter for total items listed\r\n\r\n    // Optional: Track items per owner/renter (requires more complex logic for removal on return/delist)\r\n    mapping(address => uint256[]) private _ownerItemsList;\r\n    mapping(address => uint256[]) private _renterItemsList;\r\n\r\n    // Constants\r\n    uint256 public constant LATE_FEE_PERCENTAGE = 10; // Example: 10% of deposit as late fee per day\r\n\r\n    // --- Events ---\r\n    event ItemListed(\r\n        uint256 indexed itemId,\r\n        address indexed owner,\r\n        string title,\r\n        uint256 dailyRentalPrice,\r\n        uint256 deposit,\r\n        string metadataCID // Include CID in the event\r\n    );\r\n\r\n    event ItemRented(\r\n        uint256 indexed itemId,\r\n        address indexed renter,\r\n        uint256 rentedUntil,\r\n        uint256 depositPaid\r\n    );\r\n\r\n    event ItemReturned(\r\n        uint256 indexed itemId,\r\n        address indexed renter,\r\n        uint256 rentalFeePaid, // Note: Emits CALCULATED fee before potential capping\r\n        uint256 depositRefunded,\r\n        uint256 lateFeePaid    // Note: Emits CALCULATED fee before potential capping\r\n    );\r\n\r\n    event ItemDelisted(\r\n        uint256 indexed itemId,\r\n        address indexed owner\r\n    );\r\n\r\n    // --- Modifiers ---\r\n    modifier onlyItemOwner(uint256 _itemId) {\r\n        require(items[_itemId].exists, \"Item does not exist.\");\r\n        require(msg.sender == items[_itemId].owner, \"Only the item owner can call this function.\");\r\n        _;\r\n    }\r\n\r\n    modifier onlyRenter(uint256 _itemId) {\r\n        require(items[_itemId].exists, \"Item does not exist.\"); // Corrected typo\r\n        require(msg.sender == items[_itemId].renter, \"Only the current renter can call this function.\");\r\n        _;\r\n    }\r\n\r\n    modifier isListed(uint256 _itemId) {\r\n        require(items[_itemId].exists, \"Item does not exist.\"); // Corrected typo\r\n        require(items[_itemId].isListed, \"Item is not listed for rent.\");\r\n        _;\r\n    }\r\n\r\n    modifier isRented(uint256 _itemId) {\r\n        require(items[_itemId].exists, \"Item does not exist.\"); // Corrected typo\r\n        require(!items[_itemId].isListed && items[_itemId].renter != address(0), \"Item is not currently rented.\");\r\n        _;\r\n    }\r\n\r\n    // --- Functions ---\r\n\r\n    /**\r\n     * @notice Allows an owner to list a new item for rent.\r\n     * @param _title The title or description of the item (basic).\r\n     * @param _dailyRentalPrice The rental price per day in Wei.\r\n     * @param _deposit The security deposit required in Wei.\r\n     * @param _metadataCID The IPFS Content ID linking to off-chain metadata (image, full desc, etc.).\r\n     */\r\n    function listItem(\r\n        string memory _title,\r\n        uint256 _dailyRentalPrice,\r\n        uint256 _deposit,\r\n        string memory _metadataCID // Accept CID\r\n    ) external {\r\n        require(bytes(_title).length > 0, \"Title cannot be empty.\");\r\n        require(_dailyRentalPrice > 0, \"Daily rental price must be greater than zero.\");\r\n        require(_deposit > 0, \"Deposit must be greater than zero.\");\r\n        require(bytes(_metadataCID).length > 0, \"Metadata CID cannot be empty.\"); // Basic check\r\n\r\n        totalItems++;\r\n        uint256 newItemId = totalItems;\r\n\r\n        items[newItemId] = Item({\r\n            id: newItemId,\r\n            title: _title,\r\n            owner: payable(msg.sender),\r\n            dailyRentalPrice: _dailyRentalPrice,\r\n            deposit: _deposit,\r\n            metadataCID: _metadataCID, // Store the CID\r\n            renter: payable(address(0)),\r\n            rentalStartTime: 0,\r\n            rentedUntil: 0,\r\n            isListed: true,\r\n            exists: true\r\n        });\r\n\r\n        // Optional: Add to owner's list\r\n        _ownerItemsList[msg.sender].push(newItemId);\r\n\r\n        // Emit event including the CID\r\n        emit ItemListed(newItemId, msg.sender, _title, _dailyRentalPrice, _deposit, _metadataCID);\r\n    }\r\n\r\n    /**\r\n     * @notice Allows a user to rent a listed item.\r\n     * @dev Requires payment equal to deposit + 1 day's rent.\r\n     * @param _itemId The ID of the item to rent.\r\n     */\r\n    function rentItem(uint256 _itemId) external payable isListed(_itemId) nonReentrant {\r\n        Item storage item = items[_itemId];\r\n        uint256 requiredPayment = item.deposit + item.dailyRentalPrice;\r\n        require(msg.value == requiredPayment, \"Incorrect payment amount sent.\");\r\n\r\n        item.renter = payable(msg.sender);\r\n        item.isListed = false; // Lock item availability\r\n        item.rentalStartTime = block.timestamp;\r\n        item.rentedUntil = block.timestamp + 1 days; // Initially rented for 1 day\r\n\r\n        // Optional: Add to renter's list\r\n        _renterItemsList[msg.sender].push(_itemId);\r\n\r\n        emit ItemRented(_itemId, msg.sender, item.rentedUntil, item.deposit);\r\n    }\r\n\r\n     /**\r\n     * @notice Allows the current renter to return an item.\r\n     * @dev Calculates rental fees, late fees, and distributes funds correctly.\r\n     * @param _itemId The ID of the item to return.\r\n     */\r\n    function returnItem(uint256 _itemId) external onlyRenter(_itemId) isRented(_itemId) nonReentrant {\r\n        Item storage item = items[_itemId];\r\n\r\n        // Calculate rental duration (rounds up to nearest day)\r\n        uint256 rentalDurationSeconds = block.timestamp - item.rentalStartTime;\r\n        uint256 rentalDurationDays = (rentalDurationSeconds + (1 days - 1)) / 1 days;\r\n        if (rentalDurationDays == 0) {\r\n            rentalDurationDays = 1; // Minimum 1 day charge\r\n        }\r\n\r\n        // Calculate base rental fee and late fee\r\n        uint256 calculatedRentalFee = rentalDurationDays * item.dailyRentalPrice;\r\n        uint256 calculatedLateFee = 0;\r\n        uint256 depositRefund = item.deposit; // Start with full deposit\r\n        uint256 paymentToOwner = 0; // This will hold the final amount owner receives\r\n\r\n        // Calculate late fee if applicable\r\n        if (block.timestamp > item.rentedUntil) {\r\n            uint256 overdueSeconds = block.timestamp - item.rentedUntil;\r\n            // Round up overdue days\r\n            uint256 overdueDays = (overdueSeconds + (1 days - 1)) / 1 days;\r\n            if (overdueDays > 0) {\r\n                 calculatedLateFee = (item.deposit * LATE_FEE_PERCENTAGE * overdueDays) / 100;\r\n            }\r\n        }\r\n\r\n        // Determine final payment amounts based on fees vs deposit\r\n        uint256 totalDeduction = calculatedRentalFee + calculatedLateFee;\r\n\r\n        if (totalDeduction >= depositRefund) {\r\n            // Fees meet or exceed deposit: Owner gets full deposit, refund is 0\r\n             paymentToOwner = depositRefund;\r\n             depositRefund = 0;\r\n             // Note: Event below still emits originally calculated fees for transparency\r\n        } else {\r\n             // Fees are less than deposit: Owner gets full fees, refund is remainder\r\n             paymentToOwner = totalDeduction;\r\n             // Solidity 0.8+ automatically checks for underflow\r\n             depositRefund = depositRefund - totalDeduction;\r\n        }\r\n\r\n        // --- Checks-Effects-Interactions Pattern ---\r\n        // 1. Effects (update state)\r\n        address payable renterAddress = item.renter; // Store before clearing state\r\n        item.renter = payable(address(0));\r\n        item.rentalStartTime = 0;\r\n        item.rentedUntil = 0;\r\n        item.isListed = true; // Make item available again\r\n\r\n        // Optional: Implement logic to remove item from _renterItemsList (can be gas intensive)\r\n\r\n        // Emit event *before* interactions, using originally calculated fees\r\n        emit ItemReturned(_itemId, renterAddress, calculatedRentalFee, depositRefund, calculatedLateFee);\r\n\r\n        // 2. Interactions (external calls/transfers)\r\n        // Transfer payment to owner (Corrected Logic)\r\n        if (paymentToOwner > 0) {\r\n             (bool successOwner, ) = item.owner.call{value: paymentToOwner}(\"\");\r\n             require(successOwner, \"Failed to send payment to owner.\");\r\n        }\r\n\r\n        // Transfer refund to renter\r\n        if (depositRefund > 0) {\r\n             (bool successRenter, ) = renterAddress.call{value: depositRefund}(\"\");\r\n             require(successRenter, \"Failed to send deposit refund to renter.\");\r\n        }\r\n    }\r\n\r\n    /**\r\n     * @notice Allows an owner to delist their item if it's not currently rented.\r\n     * @param _itemId The ID of the item to delist.\r\n     */\r\n    function delistItem(uint256 _itemId) external onlyItemOwner(_itemId) isListed(_itemId) {\r\n         Item storage item = items[_itemId];\r\n         // Although isListed modifier checks this, explicit check is clearer\r\n         require(item.renter == address(0), \"Cannot delist a currently rented item.\");\r\n\r\n         item.isListed = false;\r\n\r\n         // Optional: Implement removal from _ownerItemsList\r\n\r\n         emit ItemDelisted(_itemId, msg.sender);\r\n    }\r\n\r\n\r\n    // --- View Functions (for frontend) ---\r\n\r\n    /**\r\n     * @notice Get details for a specific item, including metadata CID.\r\n     * @param _itemId The ID of the item.\r\n     * @return Item details struct.\r\n     */\r\n    function getItem(uint256 _itemId) external view returns (Item memory) {\r\n        require(items[_itemId].exists, \"Item does not exist.\");\r\n        return items[_itemId];\r\n    }\r\n\r\n     /**\r\n     * @notice Get listed item IDs (example with basic pagination/limit).\r\n     * @dev Note: Iterating through all items on-chain can be inefficient for large lists.\r\n     * Consider events + off-chain indexing for production marketplaces.\r\n     * @param _offset Starting index for checking items (0 means check from item ID 1).\r\n     * @param _limit Maximum number of listed item IDs to return.\r\n     * @return Array of listed item IDs.\r\n     */\r\n    function getListedItemIds(uint256 _offset, uint256 _limit) external view returns (uint256[] memory) {\r\n        uint256 maxItems = totalItems;\r\n        if (_limit == 0) {\r\n             return new uint256[](0); // Handle zero limit\r\n        }\r\n        if (_offset >= maxItems) {\r\n            return new uint256[](0); // Offset is beyond the last possible item\r\n        }\r\n\r\n        // Estimate size needed, capped by limit and remaining items\r\n        uint256 remainingItems = maxItems - _offset;\r\n        uint256 estimatedCount = remainingItems < _limit ? remainingItems : _limit;\r\n        uint256[] memory tempIds = new uint256[](estimatedCount); // Allocate based on estimate\r\n        uint256 count = 0;\r\n\r\n        // Iterate through relevant item IDs (from _offset + 1 up to totalItems)\r\n        for (uint256 i = _offset + 1; i <= maxItems; i++) {\r\n            if (items[i].isListed && items[i].exists) {\r\n                if (count < estimatedCount) { // Check against allocated size\r\n                     tempIds[count] = i;\r\n                     count++;\r\n                 } else {\r\n                     // Stop if we've reached the limit\r\n                     break;\r\n                 }\r\n            }\r\n            // Stop if we have found enough items to fill the limit\r\n             if (count == _limit) {\r\n                 break;\r\n             }\r\n        }\r\n\r\n        // Resize array to actual count found\r\n        uint256[] memory listedIds = new uint256[](count);\r\n        for (uint256 i = 0; i < count; i++) {\r\n            listedIds[i] = tempIds[i];\r\n        }\r\n        return listedIds;\r\n    }\r\n\r\n\r\n    // Function to receive Ether (necessary for holding deposits)\r\n    receive() external payable {}\r\n    fallback() external payable {}\r\n}",
  "sourcePath": "E:\\CS 218 BlockChain\\dapp\\contracts\\RentalPlatform.sol",
  "compiler": {
    "name": "solc",
    "version": "0.8.20+commit.a1b79de6.Emscripten.clang"
  },
  "schemaVersion": "3.4.16",
  "updatedAt": "2025-04-26T05:01:26.648Z",
  "networkType": "ethereum",
  "devdoc": {
    "details": "A smart contract for a decentralized item rental platform. Stores item details and IPFS metadata links on-chain. Handles rentals, returns, fees, and payments.",
    "errors": {
      "ReentrancyGuardReentrantCall()": [
        {
          "details": "Unauthorized reentrant call."
        }
      ]
    },
    "kind": "dev",
    "methods": {
      "delistItem(uint256)": {
        "params": {
          "_itemId": "The ID of the item to delist."
        }
      },
      "getItem(uint256)": {
        "params": {
          "_itemId": "The ID of the item."
        },
        "returns": {
          "_0": "Item details struct."
        }
      },
      "getListedItemIds(uint256,uint256)": {
        "details": "Note: Iterating through all items on-chain can be inefficient for large lists. Consider events + off-chain indexing for production marketplaces.",
        "params": {
          "_limit": "Maximum number of listed item IDs to return.",
          "_offset": "Starting index for checking items (0 means check from item ID 1)."
        },
        "returns": {
          "_0": "Array of listed item IDs."
        }
      },
      "listItem(string,uint256,uint256,string)": {
        "params": {
          "_dailyRentalPrice": "The rental price per day in Wei.",
          "_deposit": "The security deposit required in Wei.",
          "_metadataCID": "The IPFS Content ID linking to off-chain metadata (image, full desc, etc.).",
          "_title": "The title or description of the item (basic)."
        }
      },
      "rentItem(uint256)": {
        "details": "Requires payment equal to deposit + 1 day's rent.",
        "params": {
          "_itemId": "The ID of the item to rent."
        }
      },
      "returnItem(uint256)": {
        "details": "Calculates rental fees, late fees, and distributes funds correctly.",
        "params": {
          "_itemId": "The ID of the item to return."
        }
      }
    },
    "title": "RentalPlatform",
    "version": 1
  },
  "userdoc": {
    "kind": "user",
    "methods": {
      "delistItem(uint256)": {
        "notice": "Allows an owner to delist their item if it's not currently rented."
      },
      "getItem(uint256)": {
        "notice": "Get details for a specific item, including metadata CID."
      },
      "getListedItemIds(uint256,uint256)": {
        "notice": "Get listed item IDs (example with basic pagination/limit)."
      },
      "listItem(string,uint256,uint256,string)": {
        "notice": "Allows an owner to list a new item for rent."
      },
      "rentItem(uint256)": {
        "notice": "Allows a user to rent a listed item."
      },
      "returnItem(uint256)": {
        "notice": "Allows the current renter to return an item."
      }
    },
    "version": 1
  }
}